:020000040800F2
:10000000B0040020D5000008AF020008AD020008CF
:1000100000000000000000000000000000000000E0
:10002000000000000000000000000000B302000813
:100030000000000000000000B1020008B502000846
:10004000E700000800000000E7000008E7000008E3
:10005000E7000008E7000008E70000083501000895
:1000600000000000E7000008E7000008E7000008C3
:10007000E7000008E7000008E700000800000000B3
:10008000E70000080000000000000000E700000892
:1000900000000000E7000008E7000008E700000893
:1000A00000000000E700000800000000E700000872
:1000B000E700000800000000000000000000000051
:1000C0000348854600F014F800480047F90200088C
:1000D000B00400200448804704480047FEE7FEE7DC
:1000E000FEE7FEE7FEE7FEE7BD020008C1000008EC
:1000F0001CB5094800900948019005460126009C5E
:1001000005E0E36807CC33430C3C98471034AC421D
:10011000F7D3FFF7D9FF0000640300088403000849
:1001200080B50C2141430248401800F009F880BD19
:10013000A000002080B50020FFF7F2FF80BD000086
:1001400070B5044600681F21014001258D40400B19
:100150000821014088000A4946184058054204D049
:1001600035606068002800D080477068284205D05C
:10017000301D0560A068002800D0804770BDC046D3
:100180000C180240064800687047C04603480078D3
:1001900003490A68101808607047C0460400002030
:1001A000AC000020F0B585B0054607465437786BA3
:1001B000202811D1012000290CD0002A0AD01C4689
:1001C00001200603AB68B34209D1CB0707D02B69E6
:1001D000002B04D105B0F0BD022005B0F0BD0191A7
:1001E00000200290F8632120786303961646FFF7FB
:1001F000C9FF04907E803E80A8680399884202D19E
:100200002869002802D00198039010E00020039094
:10021000019802900BE0039800281ED00246007857
:1002200029688862521C03927888401E78807888FA
:1002300000281DD02868C0690006ECD4601CF9D0E5
:10024000FFF7A0FF01460320002C29D0049A891A49
:10025000A14225D828680068ECE7029A1088124964
:10026000084029688862921C029200200390DBE714
:100270002868C069002601E02868C06940060ED4DD
:10028000601CF9D0FFF77EFF01460320002C07D049
:10029000049A891AA14203D828680068ECE730461E
:1002A0002021796305B0F0BDFF010000FEE7FEE705
:1002B0007047704780B5FFF769FF80BD0120C00619
:1002C000014908607047C04608ED00E080B582B083
:1002D00001900748007894214143064840187D2149
:1002E000CB0001A90122FFF75DFF019802B080BD9C
:1002F000080000200C00002080B502A000F00AF8E1
:10030000002080BD48656C6C6F20576F726C642153
:100310000000000010B5024A024900F014F810BDB8
:10032000CD0200080000002002E008C8121F08C12A
:10033000002AFAD170477047002001E001C1121F66
:10034000002AFBD17047F8B516460F460446002533
:1003500003E03946B047641C6D1C20780028F8D1B2
:100360002846F8BD880300080000002008000000AF
:10037000280300089003000808000020A8040000DB
:100380003803000800000000000000000100000029
:04000005080000C12E
:00000001FF
