:020000040800F2
:100000007007002091010008830D0008810D000891
:1000100000000000000000000000000000000000E0
:10002000000000000000000000000000870D000834
:100030000000000000000000850D0008890D000888
:10004000A301000800000000A3010008A3010008AC
:10005000A3010008A3010008A30100082D0D00085A
:1000600000000000A3010008A3010008A30100088C
:10007000A3010008A3010008A3010008000000007C
:10008000A30100080000000000000000A301000818
:1000900000000000A3010008A3010008A30100085C
:1000A00000000000A301000800000000A3010008F8
:1000B000A301000800000000000000000000000094
:1000C00000F002F800F054F812A030C808382418E4
:1000D0002D18AC4201D100F04BF80FCCA246AB4634
:1000E0000CA730CF2D1B083F3F197C427F1E544484
:1000F0002D090426F441641EAC4201D300F038F807
:100100000126334200D0FB1A3343984754465D46DC
:10011000DFE70000D00C0000F00C0000103A02D322
:1001200078C878C1FAD8520701D330C830C101D598
:1001300004680C6070470000704700000023002432
:1001400000250026103A01D378C1FBD8520700D30E
:1001500030C100D50B6070471FB50098019900F0C1
:10016000AAFB00F073F81FBD10B500F0DBF810BD5E
:1001700000F00AF91146FFF7EFFF00F011FE00F062
:1001800017FB03B4FFF7F0FF03BC00F013FD000002
:100190000748804707480047FEE7FEE7FEE7FEE71F
:1001A000FEE7FEE704480549054A064B7047000094
:1001B000910D0008C10000087001002070070020A8
:1001C00070030020700300200FB4054910B503AA86
:1001D000029800F00BF810BC08BC04B018470000EF
:1001E000640000207047704770470000084B70B5EE
:1001F0000D467B4400F013F80446284600F022F830
:10020000002802D00020C04370BD204670BD000011
:10021000C30B000001694A1C02610878704700B5F1
:100220008FB0029100210591054901937944039112
:1002300011460490684600F0ECF80FB000BD0000D5
:10024000E5FFFFFFC06880210840704710B54348B4
:10025000542100F0D9FA4248542100F0D5FA41481F
:10026000542100F0D1FA40483C493D4B404A0160DE
:100270003E4803603B4810605A1C0A65411C1965E2
:10028000012101653C48354A3AA1784400F0F4F96F
:10029000002804D1384878440C3800F091FA3848E6
:1002A0002F4A36A1784400F0E7F9002804D13448F9
:1002B00078440C3800F084FA32482A4A2FA1784456
:1002C00000F0DAF9002804D12E4878440C3800F008
:1002D00077FA40232148DC000021224600F0A6F9ED
:1002E000002804D0244878445C3800F069FA1C489F
:1002F00022464023002100F099F9002804D020482C
:1003000078445C3800F05CFA16482246102300213D
:1003100000F08CF9002804D01A4878445C3800F0CA
:100320004FFA10BD0F4870B5006D44080B486400CB
:1003300000F01AFA0A4800F017FA0A4800F014FA16
:1003400009E0206D450820466D0000F00DFA2046BA
:1003500000F039F82C46002CF3D170BD10000020BD
:1003600064000020B80000200000002004000020ED
:1003700008000020720000004A0B00007700000017
:10038000340B00001E0B0000754600F073FAAE46F9
:10039000050069465346C008C000854618B020B520
:1003A000FFF700FF60BCB64600260027C0C5C0C5E9
:1003B000C0C5C0C5C0C5C0C5C0C5C0C5403D490851
:1003C00049008D46704770B50446051F00F056FA87
:1003D0000068002C1AD0446801E020466468002CB4
:1003E00001D0AC42F9D301680A18AA4204D12A68A4
:1003F00005468918016000E0456028684119A1425E
:1004000005D16168696021684018286070BD6C6022
:1004100070BDF8B5064600244768806800903046F5
:10042000F56803E00099B847641C3046A8470028E7
:10043000F8D12046F8BD0000F7B505460C46C8685F
:100440000521C9048843012189050843E06080062D
:1004500002D5204600F069FB7249E068014002299C
:1004600003D0204600F000FBBEE005210122490335
:100470000140D20391420FD1C00306D56168E06A02
:10048000884200D80846606006E02069E06260604B
:10049000606900F0E8F9A061A1680022EEB20029CD
:1004A0000EDAE06883050BD4C943A16009212260FC
:1004B00049030843E0606068411C61600670AEE07B
:1004C000E068012149030843E060002020602069C2
:1004D000002831D1606900F0B8F90125274624379A
:1004E000ED02002816D0A0898005800F08D0E069B1
:1004F00000F00EFA0028206102D0E068284318E0DE
:1005000001202761E061E06803210902884301219D
:1005100089020DE0E06900F0FBF900282061EFD0CE
:10052000E0682843E0608105890F03D1FF21013194
:100530000843E06020696060E2683B4F2569D005B0
:1005400020D56168E06A884200D80846411B05D082
:100550002246284600F092FA002845D10298002849
:1005600004D0E56200206560A06055E0681CE06290
:100570006060E069401EA060E0683843E06030469B
:100580002E70FEBD0298002801D03A4009E0606854
:10059000411C61600670E06838430A2EE06006D0B6
:1005A0000022E16A6068814203D90B4602E0012221
:1005B000F7E70346A7895B1B7F0504D4E7699F42E1
:1005C00001DD002A1ED0814200D801460F1A00200A
:1005D000E5626560002BA06009DD224619462846C9
:1005E00000F04CFA002802D00020C043FEBD002FCE
:1005F00008D0A069E5626560C01BA061E0681021B9
:100600000843E0600298002809D06168A069E562AB
:10061000491B40186560A0610120C043FEBD304603
:10062000FEBD0000821000000000010070B5C4682B
:10063000A50713D0650211D4D51FF93D0AD0FF3D9F
:100640006D1E07D0FF3DFF3D022D07D1014624312D
:10065000012305E0074E5D1EB54201D3012070BDA8
:100660000161C36141600F2109028C431443C460DE
:10067000002070BDFFFFFF00F7B516460C4600983E
:10068000002843D0104600F06FF82078611C6128E4
:100690000AD0722802D0772839D102E0012500243F
:1006A00004E00225042401E02D4D08240222032346
:1006B00001270878491C2B2806D0622807D020394A
:1006C000C87F742807D008E01D431443F1E70420D5
:1006D00005433C43EDE7102004430098214600F019
:1006E00095F8411C13D00021316171600121F56042
:1006F0004902F1617061200704D5304602220021D1
:1007000000F038F9306D384330653046FEBD0020CA
:10071000FEBDF8B50D460646124C206DC10704D04B
:10072000410804D044086400F7E7224610E0542052
:1007300000F0EEF8070010D07908206D4900012282
:100740001143084354212065384600F05DF83A46CD
:1007500029463046FFF790FFF8BD0020F8BD0000A5
:100760000280000010000020F8B50446002647690A
:1007700000690090E568A80717D0204600F0AFF99F
:10078000384600F04DF8002800DA761E280502D51C
:100790000098FFF718FE4C21204600F035F8206D38
:1007A0004008400020653046F8BD0020C043F8BD39
:1007B00010B50446C046C0462046FFF7E2FC10BD17
:1007C00010B500F0DDF900F0D5F910BD01E004C06E
:1007D000091F0429FBD28B0701D50280801CC907A1
:1007E00000D00270704700290BD0C30702D00270FE
:1007F000401C491E022904D3830702D50280801CB5
:10080000891EE3E70022EEE70022DFE70EB5019143
:10081000009000F037FA029069460120ABBE0EBD91
:1008200008B5694600900220ABBE08BD1FB56B46F7
:1008300007C369460520ABBE04B010BD1FB56C46AA
:100840000FC469460620ABBEF6E708B569460090BE
:100850000920ABBE08BD1CB500900A200191694675
:10086000ABBE1CBD704708B5694600900C20ABBEFE
:1008700008BD0000004870470C0100200048704788
:1008800014010020704770477047704738B5044620
:100890000A4600206946C046C046002805D00246E8
:1008A0002046009900F093F9012038BD10B50120D1
:1008B00000F0E2F910BDF8B5C046C046054600207C
:1008C0000C460C20C0460646A819A0420DD9324657
:1008D00069460020C046C046070001D100F0CCF9AF
:1008E0000098A04200D00546C419FFF7C7FFF61DC7
:1008F00007460560F008C0004619284600F061F977
:10090000B44204D031463868A21B00F060F9F8BD4B
:1009100070B50646FFF7B2FF056830460B30C408D5
:10092000E400B44201D8002070BD68682A4600285F
:1009300018D00168A14211D30B46214608318B42E1
:1009400008D3436801194B6003681B1B0B6051609F
:10095000046001E041685160001D70BD02464068BE
:100960000028E6D121462846FFF790FF0028DCD179
:1009700070BD0000F8B5044616460D464769007B79
:10098000800730D03846FFF760FF00282BD1324671
:100990001026002A25D0012A02D0022A23D104E001
:1009A000204600F02EF945191BE03846FFF75BFFA3
:1009B000E16831430028E16004DA204600F054F891
:1009C0000120F8BDC9030BD56268E16A914200D8E5
:1009D0001146A26989182269891A814200DD0846F8
:1009E0002D18002D01DA0220F8BDE16A6068E26886
:1009F000814206D29103E06203D5012149048A4372
:100A00003243A669AE4211DCE16A814201D90B464C
:100A100000E003469F192369FF1AAF4206DD8142B9
:100A200001D90F4600E007469F4206D1202002432D
:100A30000020A060A56220600DE0AD1BE669AE1B42
:100A40008142A66000D90846C01A281A20605819A9
:100A5000606020208243034802400020E26040346E
:100A60002072F8BDBFCFD7FFC16880221143920327
:100A70009143C1600021816001607047F7B5154660
:100A80000C4682B0506900903748D768074209D0B9
:100A9000A9690098FFF7DFFE002815DB3248C04344
:100AA0000740EF60314EB44200D826463B463246FE
:100AB00002990098FFF7BAFE4200A9695208B21ADB
:100AC00089180028A96106D02846FFF7CDFF00202D
:100AD000C04305B0F0BDA41BE4D10020F9E770B518
:100AE00004460569C06A6168884200D80846E16822
:100AF0000522D2049143E160C90314D5A84209D06C
:100B00002246411B2846FFF7B9FF002802D00020EB
:100B1000C04370BDE56200206560A060E06801210F
:100B200009048843E060002070BD10B50446C06829
:100B300020218843E060A16AA06988420ED0204647
:100B4000FFF7CDFFE0680321090388431021084324
:100B5000E060A06AA0612069E06260600449E0682A
:100B60000840E06010BD000010000200FFFFFF7FA2
:100B7000BFBFFFFF10B5002801D000F01BF810BD6B
:100B800010B5014602A000F05DF8012010BD000084
:100B900053494752545245443A205265646972653C
:100BA00063743A2063616E2774206F70656E3A201B
:100BB0000000000001491820ABBEFEE7260002003D
:100BC000704700210160416070470C20704710B5EC
:100BD0000346406801E003464068002801D088428F
:100BE000F9D31868C3188B4206D0CB1CD808C000B4
:100BF000001D411A521A0146081D0A60FFF7E3FB67
:100C000010BD10B50146C268900703D0900607D505
:100C1000886A0AE000F05EF801210160881E10BDBC
:100C20008B694868C0180B69C01A40310B7A002BD9
:100C300002D0497A401A10BD1103FCD50028FADD14
:100C4000401E10BD70B505460C460A2000E06D1C24
:100C500000F03AF8002D06D028780028F7D102E0FD
:100C6000641C00F031F8002C02D020780028F7D165
:100C70000A2000F029F870BD10B500F02FF8FFF73A
:100C800079FF10BD30B5441C03E00178401C0029F9
:100C90000DD08107F9D10B4BDD0104C8D11A914366
:100CA0002940FAD0001B0A0603D0C01E30BD001B2D
:100CB00030BD0A0401D0801E30BD0902FCD0401EA8
:100CC00030BD00000101010108B56946087003202C
:100CD000ABBE08BD004870470C01002010B50128CC
:100CE00005D0002103A0FFF7ADFF012010BD09A131
:100CF000F8E7000053494752544D454D3A204F758F
:100D000074206F662068656170206D656D6F727903
:100D1000000000003A2048656170206D656D6F72BB
:100D20007920636F727275707465640080B50120FC
:100D3000400300F003F880BD70470000B0B50446E2
:100D4000074D2868204203D02C60204600F00AF8A6
:100D50006868204203D06C602046FFF7EDFFB0BD0D
:100D60000C180240704700000348007803490A68E5
:100D7000101808607047C0460C0000206C0100206D
:100D8000FEE7FEE77047704780B5FFF7EDFF80BDD7
:100D90000120C006014908607047C04608ED00E028
:100DA00080B502A0FFF710FA002080BD4A6F627381
:100DB00020446F6E6521000010B58A68002A03DCAC
:100DC0000022FFF739FB10BD521E8A604A68C0B28C
:100DD000531C4B60107010BD3A7474003A74740068
:100DE0003A747400080E0008000000201000000093
:100DF0001C010008180E0008100000206007000009
:100E00003C0100080000000000000000000000009D
:080E10000000000001000000D9
:04000005080000C12E
:00000001FF
