:020000040800F2
:1000000068060020650100086D0100086F01000806
:1000100000000000000000000000000000000000E0
:100020000000000000000000000000007101000856
:1000300000000000000000007301000875010008C6
:100040007701000800000000770100087701000830
:1000500077010008770100087701000877010008A0
:100060000000000077010008770100087701000810
:100070007701000877010008770100080000000000
:100080007701000800000000000000007701000870
:1000900000000000770100087701000877010008E0
:1000A0000000000077010008000000007701000850
:1000B00077010008000000000000000000000000C0
:1000C00000F002F800F03EF812A030C808382418FA
:1000D0002D18AC4201D100F035F80FCCA246AB464A
:1000E0000CA730CF2D1B083F3F197C427F1E544484
:1000F0002D090426F441641EAC4201D300F022F81D
:100100000126334200D0FB1A3343984754465D46DC
:10011000DFE700006003000070030000704700008C
:100120000023002400250026103A01D378C1FBD813
:10013000520700D330C100D50B6070471FB51FBDFB
:1001400010B510BD00F02DF81146FFF7F7FF00F0D5
:1001500071F900F045F803B4FFF7F2FF03BC00F0BB
:100160004BF800000748804707480047FEE7FEE7D6
:10017000FEE7FEE7FEE7FEE704480549054A064BB1
:1001800070470000E1020008C1000008680000207C
:10019000680600206802002068020020704770474F
:1001A0007047754600F024F8AE4605006946534690
:1001B000C008C000854618B020B5FFF7DDFF60BC61
:1001C000B64600260027C0C5C0C5C0C5C0C5C0C54D
:1001D000C0C5C0C5C0C5403D490849008D467047EF
:1001E00010B50446C046C0462046FFF7B4FF10BD18
:1001F000004870470000002001491820ABBEFEE710
:1002000026000200704700000C48016801221143DB
:10021000016005200007036809490B400360920252
:10022000036813430360426820239A434260826854
:100230000A408260C2680A40C260704734100240BF
:10024000FFF3FFFF10B508480178002902D0012212
:10025000520500E02022054B1C6814431C604A42F2
:100260004A41027010BDC0466000002018000050D6
:1002700010B501210A0417480368134303604A04B8
:100280000368134208D10368134205D1036813427F
:1002900002D103681342F3D00A07C36B1343C3634D
:1002A0000D4A13680D4C1C43146082680A43826037
:1002B000826838210A40082A0BD082680A40082A3E
:1002C00007D082680A40082A03D082680A40082AB8
:1002D000EED110BD001002400020024001020000DB
:1002E0000120C006014908607047C04608ED00E0E3
:1002F0002A48016802220A4302600D480D49C16183
:100300002F2181610146103900220A600A68012309
:1003100013430B600168C90708D10168C90705D1FB
:100320000168C90702D10168C907F3D07047C04608
:1003300010040040FE0F0000052000070168F022B5
:10034000914301600168A0230B430360816811435E
:10035000816011210902026A0A43026201204104FC
:100360000E4A13680B4313600D4900220A600A68A5
:100370000C4B13400B604A680B4B1A404A60FF223B
:10038000A232CA604A681A404A600A6802430A6098
:1003900008680C2202430A607047C0463C100240C5
:1003A00000440040FFEFFFEFFFCFFFFF027811494D
:1003B00002E0CA60581C5A78002A16D00346086822
:1003C0000006F6D408680006F3D408680006F0D4E6
:1003D00008680006F3D5ECE70868400608D408680A
:1003E000400605D40868400602D408684006F3D5E4
:1003F0007047C0461C440040B0B5002817D07D218E
:10040000C90000220A4B144603E0641CA5B28542D1
:100410000DD21A601D688D42F7D21D688D42F4D24C
:100420001D688D42F1D21D688D42F3D3EDE7B0BD5A
:1004300024040040FFF71CFFFFF7E6FEFFF758FF1C
:10044000FFF77AFF07A0FFF7B1FF7D20C400FFF799
:10045000F9FE2046FFF7D0FFFFF7F4FE2046FFF736
:10046000CBFFF4E748656C6C6F20576F726C6421AA
:10047000000000008404000800000020680600005E
:04048000200100084F
:04000005080000C12E
:00000001FF
